{
  "contractName": "CoinFlip",
  "abi": [
    {
      "inputs": [],
      "stateMutability": "nonpayable",
      "type": "constructor"
    },
    {
      "inputs": [],
      "name": "addBalance",
      "outputs": [
        {
          "internalType": "uint256",
          "name": "",
          "type": "uint256"
        }
      ],
      "stateMutability": "payable",
      "type": "function",
      "payable": true
    },
    {
      "inputs": [],
      "name": "getBalance",
      "outputs": [
        {
          "internalType": "uint256",
          "name": "",
          "type": "uint256"
        }
      ],
      "stateMutability": "view",
      "type": "function",
      "constant": true
    },
    {
      "inputs": [
        {
          "internalType": "uint256",
          "name": "amount",
          "type": "uint256"
        }
      ],
      "name": "setBet",
      "outputs": [
        {
          "internalType": "uint256",
          "name": "",
          "type": "uint256"
        },
        {
          "internalType": "uint256",
          "name": "",
          "type": "uint256"
        }
      ],
      "stateMutability": "payable",
      "type": "function",
      "payable": true
    },
    {
      "inputs": [],
      "name": "getBetAmount",
      "outputs": [
        {
          "internalType": "uint256",
          "name": "",
          "type": "uint256"
        }
      ],
      "stateMutability": "view",
      "type": "function",
      "constant": true
    },
    {
      "inputs": [
        {
          "internalType": "uint256",
          "name": "choice",
          "type": "uint256"
        }
      ],
      "name": "random",
      "outputs": [
        {
          "internalType": "string",
          "name": "",
          "type": "string"
        }
      ],
      "stateMutability": "payable",
      "type": "function",
      "payable": true
    }
  ],
  "bytecode": "0x608060405234801561001057600080fd5b5060016002819055506104fc806100286000396000f3fe60806040526004361061004a5760003560e01c806312065fe01461004f578063b163cc381461007a578063b863bd3714610098578063e8399cc61461013f578063fde41e2914610188575b600080fd5b34801561005b57600080fd5b506100646101b3565b6040518082815260200191505060405180910390f35b6100826101f9565b6040518082815260200191505060405180910390f35b6100c4600480360360208110156100ae57600080fd5b810190808035906020019092919050505061028b565b6040518080602001828103825283818151815260200191508051906020019080838360005b838110156101045780820151818401526020810190506100e9565b50505050905090810190601f1680156101315780820380516001836020036101000a031916815260200191505b509250505060405180910390f35b61016b6004803603602081101561015557600080fd5b810190808035906020019092919050505061039a565b604051808381526020018281526020019250505060405180910390f35b34801561019457600080fd5b5061019d610496565b6040518082815260200191505060405180910390f35b60008060003373ffffffffffffffffffffffffffffffffffffffff1673ffffffffffffffffffffffffffffffffffffffff16815260200190815260200160002054905090565b6000346000803373ffffffffffffffffffffffffffffffffffffffff1673ffffffffffffffffffffffffffffffffffffffff168152602001908152602001600020600082825401925050819055506000803373ffffffffffffffffffffffffffffffffffffffff1673ffffffffffffffffffffffffffffffffffffffff16815260200190815260200160002054905090565b6060600082148061029c5750600182145b6102a557600080fd5b6000600242816102b157fe5b06905082811415610353576002600154026000803373ffffffffffffffffffffffffffffffffffffffff1673ffffffffffffffffffffffffffffffffffffffff1681526020019081526020016000206000828254019250508190555060006001819055506040518060400160405280601281526020017f636f6e67726174732c20796f752077696e210000000000000000000000000000815250915050610395565b60006001819055506040518060400160405280601a81526020017f736f72727920796f75206c6f73742c2074727920616761696e2e0000000000008152509150505b919050565b6000808260025411156103f8576040517f08c379a00000000000000000000000000000000000000000000000000000000081526004018080602001828103825260268152602001806104a16026913960400191505060405180910390fd5b826000803373ffffffffffffffffffffffffffffffffffffffff1673ffffffffffffffffffffffffffffffffffffffff16815260200190815260200160002060008282540392505081905550826001819055506000803373ffffffffffffffffffffffffffffffffffffffff1673ffffffffffffffffffffffffffffffffffffffff1681526020019081526020016000205460015491509150915091565b600060015490509056fe4d696e696d756d206265742073686f756c64206265206174206c656173742031206574686572a264697066735822122008e3adad666186c6998940601b50354dda62694be7fb278e5db4752294284f7f64736f6c63430007060033",
  "immutableReferences": {},
  "source": "pragma solidity 0.7.6;\n\ncontract CoinFlip {\n\n    // struct User {\n    //     uint256 id;\n    //     uint256 balance;\n    // }\n\n// \tmapping (address => User) user;\n//     User[] users;\n\n    mapping (address => uint) balance;\n\n    uint256 betAmount;\n    uint256 minimumBet;\n    //bool betChoice;\n\t//uint256 winningOutcome;\n\n\t//address[] addressList;\n\n\tconstructor() {\n\t\tminimumBet = 1;\n\t}\n\n\n\tfunction addBalance() public payable returns(uint){\n\t\tbalance[msg.sender] += msg.value;\n\t\treturn balance[msg.sender];\n\t}\n\n\tfunction getBalance() public view returns(uint){\n\t    //require(balance[msg.sender] > 0, \"No active balance. Add funds to continue\");\n\t    return balance[msg.sender];\n\t}\n\n// \tfunction flipCoin(uint256 betAmount) public payable returns() {\n// \t\trequire;\n// \t\tmsg.value = betAmount;\n// \t}\n\n    function setBet(uint256 amount) public payable returns(uint256, uint256){\n        //require(amount <= balance[msg.sender]);\n        require(minimumBet <= amount, \"Minimum bet should be at least 1 ether\");\n        balance[msg.sender] -= amount;\n        betAmount = amount;\n        return(balance[msg.sender], betAmount);\n    }\n\n    function getBetAmount() public view returns(uint256){\n        return betAmount;\n    }\n\n\tfunction random(uint256 choice) public payable returns(string memory){\n\t    require(choice == 0 || choice == 1);\n\t    //require(betAmount > 0);\n\t\tuint256 result = block.timestamp % 2;\n\t\tif(result == choice){\n\t\t    balance[msg.sender] += betAmount * 2;\n\t\t    betAmount = 0;\n\t\t    return \"congrats, you win!\";\n\t\t}\n\t\telse{\n\t\t    betAmount = 0;\n\t\t    return \"sorry you lost, try again.\";\n\t\t}\n\t}\n}",
  "sourcePath": "/home/paulrmunley/crypto-dev/CoinFlipDappProjectFolder/CoinFlipDapp/contracts/CoinFlip.sol",
  "compiler": {
    "name": "solc",
    "version": "0.7.6+commit.7338295f.Emscripten.clang"
  },
  "schemaVersion": "3.3.3",
  "updatedAt": "2021-01-14T15:38:17.062Z",
  "networkType": "ethereum",
  "devdoc": {
    "kind": "dev",
    "methods": {},
    "version": 1
  },
  "userdoc": {
    "kind": "user",
    "methods": {},
    "version": 1
  }
}