{
  "contractName": "CoinFlip",
  "abi": [
    {
      "inputs": [],
      "name": "betAmount",
      "outputs": [
        {
          "internalType": "uint256",
          "name": "",
          "type": "uint256"
        }
      ],
      "stateMutability": "view",
      "type": "function",
      "constant": true
    },
    {
      "inputs": [],
      "name": "contractBalance",
      "outputs": [
        {
          "internalType": "uint256",
          "name": "",
          "type": "uint256"
        }
      ],
      "stateMutability": "view",
      "type": "function",
      "constant": true
    },
    {
      "inputs": [],
      "name": "addBalance",
      "outputs": [],
      "stateMutability": "payable",
      "type": "function",
      "payable": true
    },
    {
      "inputs": [
        {
          "internalType": "uint256",
          "name": "amount",
          "type": "uint256"
        }
      ],
      "name": "setBet",
      "outputs": [],
      "stateMutability": "payable",
      "type": "function",
      "payable": true
    },
    {
      "inputs": [
        {
          "internalType": "uint256",
          "name": "choice",
          "type": "uint256"
        }
      ],
      "name": "random",
      "outputs": [
        {
          "internalType": "bool",
          "name": "",
          "type": "bool"
        }
      ],
      "stateMutability": "payable",
      "type": "function",
      "payable": true
    }
  ],
  "bytecode": "0x608060405234801561001057600080fd5b50610265806100206000396000f3fe60806040526004361061004a5760003560e01c80638b7afe2e1461004f578063b163cc381461007a578063b863bd3714610084578063d24257c0146100c8578063e8399cc6146100f3575b600080fd5b34801561005b57600080fd5b50610064610121565b6040518082815260200191505060405180910390f35b610082610127565b005b6100b06004803603602081101561009a57600080fd5b8101908080359060200190929190505050610139565b60405180821515815260200191505060405180910390f35b3480156100d457600080fd5b506100dd61020f565b6040518082815260200191505060405180910390f35b61011f6004803603602081101561010957600080fd5b8101908080359060200190929190505050610215565b005b60015481565b34600160008282540192505081905550565b6000808214806101495750600182145b6101bb576040517f08c379a000000000000000000000000000000000000000000000000000000000815260040180806020018281038252600e8152602001807f696e76616c69642063686f69636500000000000000000000000000000000000081525060200191505060405180910390fd5b600080600242816101c857fe5b069050838114156101f8576002805402600160008282540192505081905550600191506000600281905550610205565b6000915060006002819055505b8192505050919050565b60025481565b80600160008282540392505081905550806002819055505056fea2646970667358221220a449ec4ff1415225d98fafb516bf6931fc723412cb8bf7679755490efe49475b64736f6c63430007060033",
  "immutableReferences": {},
  "source": "pragma solidity 0.7.6;\r\n\r\ncontract CoinFlip {\r\n\r\n    mapping (address => uint) balance;\r\n\r\n\tuint256 public contractBalance;\r\n    uint256 public betAmount;\r\n\t// uint256 minimumAddBalanceAmnt; //**CHECK NOTE BELOW**\r\n    \r\n\t//Constructor to intiailize minimumAddBalanceAmnt variable to 1.. **CHECK NOTE BELOW**\r\n\t// constructor() {\r\n\t// \tminimumAddBalanceAmnt = 1;\r\n\t// }\r\n\r\n\t/*// uint256 minimumBet; **CHECK NOTE BELOW**\r\n\r\n\t//Constructor to intiailize minimumBet variable to 1\r\n\tconstructor() {\r\n\t\tminimumBet = 1;\r\n\t}*/\r\n\r\n\t//Add funds to contract balance (aka set contractBalance)\r\n\tfunction addBalance() public payable {\r\n\t\t// require(msg.value >=  minimumAddBalanceAmnt); //**CHECK NOTE BELOW**\r\n\t\tcontractBalance += msg.value;\r\n\t}\r\n\r\n\t//Add funds from contractBalance to betAmount variable (aka set betAmount)\r\n    function setBet(uint amount) public payable {\r\n        // require(amount <= contractBalance, \"Insufficient funds. Please bet equal to or less than your current balance amount. Or add more to your balance.\");\r\n        //require(minimumBet <= amount, \"Minimum bet should be at least 1 ether\"); **CHECK NOTE BELOW**\r\n\t\tcontractBalance -= amount;\r\n\t\tbetAmount = amount;\r\n    }\r\n\r\n\t//Function to choose heads/tails choice, run psudo-random coin flip, and run result if choser won/lost\r\n\tfunction random(uint256 choice) public payable returns(bool){\r\n\t    require(choice == 0 || choice == 1, \"invalid choice\");\r\n\t    //require(betAmount > 0);\r\n\t\tbool success;\r\n\t\tuint256 result = block.timestamp % 2;\r\n\t\tif(result == choice){\r\n\t\t    contractBalance += betAmount * 2;\r\n\t\t    success = true;\r\n\t\t\tbetAmount = 0;\r\n\t\t}\r\n\t\telse{\r\n\t\t    success = false;\r\n\t\t\tbetAmount = 0;\r\n\t\t}\r\n\t\treturn success;\r\n\t}\r\n\r\n}",
  "sourcePath": "C:/Users/Slapi/pauls-projects/crypto-dev/CoinFlipDapp/CoinFlipDapp/contracts/CoinFlip.sol",
  "compiler": {
    "name": "solc",
    "version": "0.7.6+commit.7338295f.Emscripten.clang"
  },
  "schemaVersion": "3.3.3",
  "updatedAt": "2021-01-21T19:22:43.558Z",
  "networkType": "ethereum",
  "devdoc": {
    "kind": "dev",
    "methods": {},
    "version": 1
  },
  "userdoc": {
    "kind": "user",
    "methods": {},
    "version": 1
  }
}