{
  "contractName": "CoinFlip",
  "abi": [
    {
      "inputs": [],
      "name": "betAmount",
      "outputs": [
        {
          "internalType": "uint256",
          "name": "",
          "type": "uint256"
        }
      ],
      "stateMutability": "view",
      "type": "function",
      "constant": true
    },
    {
      "inputs": [],
      "name": "contractBalance",
      "outputs": [
        {
          "internalType": "uint256",
          "name": "",
          "type": "uint256"
        }
      ],
      "stateMutability": "view",
      "type": "function",
      "constant": true
    },
    {
      "inputs": [],
      "name": "addBalance",
      "outputs": [
        {
          "internalType": "uint256",
          "name": "",
          "type": "uint256"
        }
      ],
      "stateMutability": "payable",
      "type": "function",
      "payable": true
    },
    {
      "inputs": [
        {
          "internalType": "uint256",
          "name": "amount",
          "type": "uint256"
        }
      ],
      "name": "setBet",
      "outputs": [],
      "stateMutability": "nonpayable",
      "type": "function"
    },
    {
      "inputs": [
        {
          "internalType": "uint256",
          "name": "choice",
          "type": "uint256"
        }
      ],
      "name": "random",
      "outputs": [
        {
          "internalType": "uint256",
          "name": "",
          "type": "uint256"
        }
      ],
      "stateMutability": "payable",
      "type": "function",
      "payable": true
    }
  ],
  "bytecode": "0x608060405234801561001057600080fd5b5061021f806100206000396000f3fe60806040526004361061004a5760003560e01c80638b7afe2e1461004f578063b163cc381461007a578063b863bd3714610098578063d24257c0146100da578063e8399cc614610105575b600080fd5b34801561005b57600080fd5b50610064610140565b6040518082815260200191505060405180910390f35b610082610146565b6040518082815260200191505060405180910390f35b6100c4600480360360208110156100ae57600080fd5b8101908080359060200190929190505050610160565b6040518082815260200191505060405180910390f35b3480156100e657600080fd5b506100ef6101c9565b6040518082815260200191505060405180910390f35b34801561011157600080fd5b5061013e6004803603602081101561012857600080fd5b81019080803590602001909291905050506101cf565b005b60015481565b600034600160008282540192505081905550600154905090565b6000808214806101705750600182145b61017957600080fd5b60006002428161018557fe5b069050828114156101b6576002805402600160008282540192505081905550600060028190555060009150506101c4565b600060028190555060019150505b919050565b60025481565b80600160008282540392505081905550806002819055505056fea26469706673582212208a1fe17616b264f48cca6e6e832c065c0eed1878975d6219b7f67f70549ea52864736f6c63430007060033",
  "immutableReferences": {},
  "source": "pragma solidity 0.7.6;\n\ncontract CoinFlip {\n\n    mapping (address => uint) balance;\n\n\tuint256 public contractBalance;\n    uint256 public betAmount;\n\t// uint256 minimumAddBalanceAmnt; //**CHECK NOTE BELOW**\n    \n\t//Constructor to intiailize minimumAddBalanceAmnt variable to 1.. **CHECK NOTE BELOW**\n\t// constructor() {\n\t// \tminimumAddBalanceAmnt = 1;\n\t// }\n\n\t/*// uint256 minimumBet; **CHECK NOTE BELOW**\n\n\t//Constructor to intiailize minimumBet variable to 1\n\tconstructor() {\n\t\tminimumBet = 1;\n\t}*/\n\n\t//Add funds to contract balance (aka set contractBalance)\n\tfunction addBalance() public payable returns(uint256) {\n\t\t// require(msg.value >=  minimumAddBalanceAmnt); //**CHECK NOTE BELOW**\n\t\tcontractBalance += msg.value;\n\t\treturn contractBalance;\n\t}\n\n\t//Add funds from contractBalance to betAmount variable (aka set betAmount)\n    function setBet(uint256 amount) public {\n        // require(amount <= contractBalance, \"Insufficient funds. Please bet equal to or less than your current balance amount. Or add more to your balance.\");\n        //require(minimumBet <= amount, \"Minimum bet should be at least 1 ether\"); **CHECK NOTE BELOW**\n        contractBalance -= amount;\n        betAmount = amount;\n    }\n\n\t//Function to choose heads/tails choice, run psudo-random coin flip, and run result if choser won/lost\n\tfunction random(uint256 choice) public payable returns(uint){\n\t    require(choice == 0 || choice == 1);\n\t    //require(betAmount > 0);\n\t\tuint256 result = block.timestamp % 2;\n\t\tif(result == choice){\n\t\t    contractBalance += betAmount * 2;\n\t\t    betAmount = 0;\n\t\t    return 0;\n\t\t}\n\t\telse{\n\t\t    betAmount = 0;\n\t\t    return 1;\n\t\t}\n\t}\n\n}",
  "sourcePath": "/home/paulrmunley/crypto-dev/CoinFlipDappProjectFolder/CoinFlipDapp/contracts/CoinFlip.sol",
  "compiler": {
    "name": "solc",
    "version": "0.7.6+commit.7338295f.Emscripten.clang"
  },
  "schemaVersion": "3.3.3",
  "updatedAt": "2021-01-19T05:04:29.928Z",
  "networkType": "ethereum",
  "devdoc": {
    "kind": "dev",
    "methods": {},
    "version": 1
  },
  "userdoc": {
    "kind": "user",
    "methods": {},
    "version": 1
  }
}