{
  "contractName": "CoinFlip",
  "abi": [
    {
      "inputs": [],
      "stateMutability": "nonpayable",
      "type": "constructor"
    },
    {
      "anonymous": false,
      "inputs": [
        {
          "indexed": false,
          "internalType": "string",
          "name": "description",
          "type": "string"
        }
      ],
      "name": "LogNewProvableQuery",
      "type": "event"
    },
    {
      "anonymous": false,
      "inputs": [
        {
          "indexed": false,
          "internalType": "address",
          "name": "bettor",
          "type": "address"
        },
        {
          "indexed": false,
          "internalType": "bytes32",
          "name": "_queryId",
          "type": "bytes32"
        },
        {
          "indexed": false,
          "internalType": "uint256",
          "name": "_betAmount",
          "type": "uint256"
        }
      ],
      "name": "betPlaced",
      "type": "event"
    },
    {
      "anonymous": false,
      "inputs": [
        {
          "indexed": false,
          "internalType": "address",
          "name": "bettor",
          "type": "address"
        },
        {
          "indexed": false,
          "internalType": "bytes32",
          "name": "_queryId",
          "type": "bytes32"
        },
        {
          "indexed": false,
          "internalType": "uint256",
          "name": "wonAmount",
          "type": "uint256"
        }
      ],
      "name": "coinFlipResults",
      "type": "event"
    },
    {
      "anonymous": false,
      "inputs": [
        {
          "indexed": false,
          "internalType": "uint256",
          "name": "randomNumber",
          "type": "uint256"
        }
      ],
      "name": "generatedRandomNumber",
      "type": "event"
    },
    {
      "inputs": [],
      "name": "contractBalance",
      "outputs": [
        {
          "internalType": "uint256",
          "name": "",
          "type": "uint256"
        }
      ],
      "stateMutability": "view",
      "type": "function",
      "constant": true
    },
    {
      "inputs": [
        {
          "internalType": "bytes32",
          "name": "_myid",
          "type": "bytes32"
        },
        {
          "internalType": "string",
          "name": "_result",
          "type": "string"
        }
      ],
      "name": "__callback",
      "outputs": [],
      "stateMutability": "nonpayable",
      "type": "function"
    },
    {
      "inputs": [
        {
          "internalType": "bytes32",
          "name": "_myid",
          "type": "bytes32"
        },
        {
          "internalType": "string",
          "name": "_result",
          "type": "string"
        },
        {
          "internalType": "bytes",
          "name": "_proof",
          "type": "bytes"
        }
      ],
      "name": "__callback",
      "outputs": [],
      "stateMutability": "nonpayable",
      "type": "function"
    },
    {
      "inputs": [
        {
          "internalType": "bytes32",
          "name": "_queryId",
          "type": "bytes32"
        },
        {
          "internalType": "string",
          "name": "_result",
          "type": "string"
        },
        {
          "internalType": "uint256",
          "name": "_choice",
          "type": "uint256"
        },
        {
          "internalType": "bytes",
          "name": "_proof",
          "type": "bytes"
        }
      ],
      "name": "__callback",
      "outputs": [],
      "stateMutability": "nonpayable",
      "type": "function"
    },
    {
      "inputs": [
        {
          "internalType": "uint256",
          "name": "amount",
          "type": "uint256"
        }
      ],
      "name": "update",
      "outputs": [],
      "stateMutability": "payable",
      "type": "function",
      "payable": true
    },
    {
      "inputs": [],
      "name": "addBalance",
      "outputs": [],
      "stateMutability": "payable",
      "type": "function",
      "payable": true
    },
    {
      "inputs": [],
      "name": "withdrawBalance",
      "outputs": [],
      "stateMutability": "payable",
      "type": "function",
      "payable": true
    }
  ],
  "bytecode": "0x60806040523480156200001157600080fd5b5060006007819055506200002f603060f81b6200003560201b60201c565b62000a29565b600073ffffffffffffffffffffffffffffffffffffffff16600160009054906101000a900473ffffffffffffffffffffffffffffffffffffffff1673ffffffffffffffffffffffffffffffffffffffff161480620000c557506000620000c3600160009054906101000a900473ffffffffffffffffffffffffffffffffffffffff166200037460201b60201c565b145b15620000df57620000dd60006200037f60201b60201c565b505b600160009054906101000a900473ffffffffffffffffffffffffffffffffffffffff1673ffffffffffffffffffffffffffffffffffffffff166338cc48316040518163ffffffff1660e01b8152600401602060405180830381600087803b1580156200014a57600080fd5b505af11580156200015f573d6000803e3d6000fd5b505050506040513d60208110156200017657600080fd5b810190808051906020019092919050505073ffffffffffffffffffffffffffffffffffffffff1660008054906101000a900473ffffffffffffffffffffffffffffffffffffffff1673ffffffffffffffffffffffffffffffffffffffff1614620002c257600160009054906101000a900473ffffffffffffffffffffffffffffffffffffffff1673ffffffffffffffffffffffffffffffffffffffff166338cc48316040518163ffffffff1660e01b8152600401602060405180830381600087803b1580156200024557600080fd5b505af11580156200025a573d6000803e3d6000fd5b505050506040513d60208110156200027157600080fd5b81019080805190602001909291905050506000806101000a81548173ffffffffffffffffffffffffffffffffffffffff021916908373ffffffffffffffffffffffffffffffffffffffff1602179055505b60008054906101000a900473ffffffffffffffffffffffffffffffffffffffff1673ffffffffffffffffffffffffffffffffffffffff1663688dcfd7826040518263ffffffff1660e01b815260040180827effffffffffffffffffffffffffffffffffffffffffffffffffffffffffffff19168152602001915050600060405180830381600087803b1580156200035857600080fd5b505af11580156200036d573d6000803e3d6000fd5b5050505050565b6000813b9050919050565b6000620003916200039860201b60201c565b9050919050565b600080620003c0731d3b2638a7cc9f2cb3d298a3da7a90b67e5506ed6200037460201b60201c565b11156200046c57731d3b2638a7cc9f2cb3d298a3da7a90b67e5506ed600160006101000a81548173ffffffffffffffffffffffffffffffffffffffff021916908373ffffffffffffffffffffffffffffffffffffffff160217905550620004626040518060400160405280600b81526020017f6574685f6d61696e6e65740000000000000000000000000000000000000000008152506200096760201b60201c565b6001905062000964565b60006200049373c03a2615d5efaf5f49f60b7bb6583eaec212fdf16200037460201b60201c565b11156200053f5773c03a2615d5efaf5f49f60b7bb6583eaec212fdf1600160006101000a81548173ffffffffffffffffffffffffffffffffffffffff021916908373ffffffffffffffffffffffffffffffffffffffff160217905550620005356040518060400160405280600c81526020017f6574685f726f707374656e3300000000000000000000000000000000000000008152506200096760201b60201c565b6001905062000964565b60006200056673b7a07bcf2ba2f2703b24c0691b5278999c59ac7e6200037460201b60201c565b1115620006125773b7a07bcf2ba2f2703b24c0691b5278999c59ac7e600160006101000a81548173ffffffffffffffffffffffffffffffffffffffff021916908373ffffffffffffffffffffffffffffffffffffffff160217905550620006086040518060400160405280600981526020017f6574685f6b6f76616e00000000000000000000000000000000000000000000008152506200096760201b60201c565b6001905062000964565b60006200063973146500cfd35b22e4a392fe0adc06de1a1368ed486200037460201b60201c565b1115620006e55773146500cfd35b22e4a392fe0adc06de1a1368ed48600160006101000a81548173ffffffffffffffffffffffffffffffffffffffff021916908373ffffffffffffffffffffffffffffffffffffffff160217905550620006db6040518060400160405280600b81526020017f6574685f72696e6b6562790000000000000000000000000000000000000000008152506200096760201b60201c565b6001905062000964565b60006200070c73a2998efd205fb9d4b4963afb70778d6354ad3a416200037460201b60201c565b1115620007b85773a2998efd205fb9d4b4963afb70778d6354ad3a41600160006101000a81548173ffffffffffffffffffffffffffffffffffffffff021916908373ffffffffffffffffffffffffffffffffffffffff160217905550620007ae6040518060400160405280600a81526020017f6574685f676f65726c69000000000000000000000000000000000000000000008152506200096760201b60201c565b6001905062000964565b6000620007df736f485c8bf6fc43ea212e93bbf8ce046c7f1cb4756200037460201b60201c565b11156200084557736f485c8bf6fc43ea212e93bbf8ce046c7f1cb475600160006101000a81548173ffffffffffffffffffffffffffffffffffffffff021916908373ffffffffffffffffffffffffffffffffffffffff1602179055506001905062000964565b60006200086c7320e12a1f859b3feae5fb2a0a32c18f5a65555bbf6200037460201b60201c565b1115620008d2577320e12a1f859b3feae5fb2a0a32c18f5a65555bbf600160006101000a81548173ffffffffffffffffffffffffffffffffffffffff021916908373ffffffffffffffffffffffffffffffffffffffff1602179055506001905062000964565b6000620008f97351efaf4c8b3c9afbd5ab9f4bbc82784ab6ef8faa6200037460201b60201c565b11156200095f577351efaf4c8b3c9afbd5ab9f4bbc82784ab6ef8faa600160006101000a81548173ffffffffffffffffffffffffffffffffffffffff021916908373ffffffffffffffffffffffffffffffffffffffff1602179055506001905062000964565b600090505b90565b80600290805190602001906200097f92919062000983565b5050565b828054600181600116156101000203166002900490600052602060002090601f016020900481019282601f10620009c657805160ff1916838001178555620009f7565b82800160010185558215620009f7579182015b82811115620009f6578251825591602001919060010190620009d9565b5b50905062000a06919062000a0a565b5090565b5b8082111562000a2557600081600090555060010162000a0b565b5090565b6125738062000a396000396000f3fe6080604052600436106100705760003560e01c806382ab890a1161004e57806382ab890a146102ba5780638b7afe2e146102e857806394493e7614610313578063b163cc381461048657610070565b806327dc297e1461007557806338bbfa50146101475780635fd8c710146102b0575b600080fd5b34801561008157600080fd5b506101456004803603604081101561009857600080fd5b8101908080359060200190929190803590602001906401000000008111156100bf57600080fd5b8201836020820111156100d157600080fd5b803590602001918460018302840111640100000000831117156100f357600080fd5b91908080601f016020809104026020016040519081016040528093929190818152602001838380828437600081840152601f19601f820116905080830192505050505050509192919290505050610490565b005b34801561015357600080fd5b506102ae6004803603606081101561016a57600080fd5b81019080803590602001909291908035906020019064010000000081111561019157600080fd5b8201836020820111156101a357600080fd5b803590602001918460018302840111640100000000831117156101c557600080fd5b91908080601f016020809104026020016040519081016040528093929190818152602001838380828437600081840152601f19601f8201169050808301925050505050505091929192908035906020019064010000000081111561022857600080fd5b82018360208201111561023a57600080fd5b8035906020019184600183028401116401000000008311171561025c57600080fd5b91908080601f016020809104026020016040519081016040528093929190818152602001838380828437600081840152601f19601f8201169050808301925050505050505091929192905050506104ea565b005b6102b861050d565b005b6102e6600480360360208110156102d057600080fd5b8101908080359060200190929190505050610560565b005b3480156102f457600080fd5b506102fd6106a7565b6040518082815260200191505060405180910390f35b34801561031f57600080fd5b506104846004803603608081101561033657600080fd5b81019080803590602001909291908035906020019064010000000081111561035d57600080fd5b82018360208201111561036f57600080fd5b8035906020019184600183028401116401000000008311171561039157600080fd5b91908080601f016020809104026020016040519081016040528093929190818152602001838380828437600081840152601f19601f82011690508083019250505050505050919291929080359060200190929190803590602001906401000000008111156103fe57600080fd5b82018360208201111561041057600080fd5b8035906020019184600183028401116401000000008311171561043257600080fd5b91908080601f016020809104026020016040519081016040528093929190818152602001838380828437600081840152601f19601f8201169050808301925050505050505091929192905050506106ad565b005b61048e61081c565b005b6104e68282600067ffffffffffffffff811180156104ad57600080fd5b506040519080825280601f01601f1916602001820160405280156104e05781602001600182028036833780820191505090505b506104ea565b5050565b6000801b600360008060001b815260200190815260200160002081905550505050565b3373ffffffffffffffffffffffffffffffffffffffff166108fc6007549081150290604051600060405180830381858888f19350505050158015610555573d6000803e3d6000fd5b506000600781905550565b60008062030d40905060006105778360018461082e565b90508360076000828254039250508190555060405180606001604052803373ffffffffffffffffffffffffffffffffffffffff168152602001858152602001600015158152506005600083815260200190815260200160002060008201518160000160006101000a81548173ffffffffffffffffffffffffffffffffffffffff021916908373ffffffffffffffffffffffffffffffffffffffff1602179055506020820151816001015560408201518160020160006101000a81548160ff0219169083151502179055509050507ffc2fe68101fc6915d659df206ef61ccafa88befcd022d6a9b8fadab1f5696884338286604051808473ffffffffffffffffffffffffffffffffffffffff168152602001838152602001828152602001935050505060405180910390a150505050565b60075481565b60006002846040516020018082805190602001908083835b602083106106e857805182526020820191506020810190506020830392506106c5565b6001836020036101000a0380198251168184511680821785525050505050509050019150506040516020818303038152906040528051906020012060001c8161072d57fe5b06905080831415610792576000600260056000888152602001908152602001600020600101540290506007548101905060016005600088815260200190815260200160002060020160006101000a81548160ff021916908315150217905550506107de565b6000600560008781526020019081526020016000206001018190555060006005600087815260200190815260200160002060020160006101000a81548160ff0219169083151502179055505b7fc13d60fe9dffdb6908d2d446cd18134373a51db0738ee04f296eeb9128121cbc816040518082815260200191505060405180910390a15050505050565b34600760008282540192505081905550565b60008083118015610840575060208311155b61084957600080fd5b600a840293506060600167ffffffffffffffff8111801561086957600080fd5b506040519080825280601f01601f19166020018201604052801561089c5781602001600182028036833780820191505090505b5090508360f81b816000815181106108b057fe5b60200101907effffffffffffffffffffffffffffffffffffffffffffffffffffffffffffff1916908160001a9053506060602067ffffffffffffffff811180156108f957600080fd5b506040519080825280601f01601f19166020018201604052801561092c5781602001600182028036833780820191505090505b5090506060602067ffffffffffffffff8111801561094957600080fd5b506040519080825280601f01601f19166020018201604052801561097c5781602001600182028036833780820191505090505b5090506000610989610e53565b9050602083524241186001430340186020840152602082528060208301526060602067ffffffffffffffff811180156109c157600080fd5b506040519080825280601f01601f1916602001820160405280156109f45781602001600182028036833780820191505090505b5090508860208201526060600867ffffffffffffffff81118015610a1757600080fd5b506040519080825280601f01601f191660200182016040528015610a4a5781602001600182028036833780820191505090505b509050610a5d826018600884600061116e565b50610a6661245f565b60405180608001604052808781526020018881526020018681526020018481525090506000610acb6040518060400160405280600681526020017f72616e646f6d0000000000000000000000000000000000000000000000000000815250838c6111cd565b90506060600867ffffffffffffffff81118015610ae757600080fd5b506040519080825280601f01601f191660200182016040528015610b1a5781602001600182028036833780820191505090505b50905060208401517f0100000000000000000000000000000000000000000000000000000000000000810460278301537e01000000000000000000000000000000000000000000000000000000000000810460268301537d010000000000000000000000000000000000000000000000000000000000810460258301537c0100000000000000000000000000000000000000000000000000000000810460248301537b01000000000000000000000000000000000000000000000000000000810460238301537a010000000000000000000000000000000000000000000000000000810460228301537901000000000000000000000000000000000000000000000000008104602183015378010000000000000000000000000000000000000000000000008104602083015350610e40828285600160048110610c5957fe5b6020020151600287600060048110610c6d57fe5b60200201516040518082805190602001908083835b60208310610ca55780518252602082019150602081019050602083039250610c82565b6001836020036101000a038019825116818451168082178552505050505050905001915050602060405180830381855afa158015610ce7573d6000803e3d6000fd5b5050506040513d6020811015610cfc57600080fd5b810190808051906020019092919050505087600260048110610d1a57fe5b60200201516040516020018085805190602001908083835b60208310610d555780518252602082019150602081019050602083039250610d32565b6001836020036101000a03801982511681845116808217855250505050505090500184805190602001908083835b60208310610da65780518252602082019150602081019050602083039250610d83565b6001836020036101000a03801982511681845116808217855250505050505090500183815260200182805190602001908083835b60208310610dfd5780518252602082019150602081019050602083039250610dda565b6001836020036101000a03801982511681845116808217855250505050505090500194505050505060405160208183030381529060405280519060200120611550565b8199505050505050505050509392505050565b60008073ffffffffffffffffffffffffffffffffffffffff16600160009054906101000a900473ffffffffffffffffffffffffffffffffffffffff1673ffffffffffffffffffffffffffffffffffffffff161480610edb57506000610ed9600160009054906101000a900473ffffffffffffffffffffffffffffffffffffffff1661156c565b145b15610eec57610eea6000611577565b505b600160009054906101000a900473ffffffffffffffffffffffffffffffffffffffff1673ffffffffffffffffffffffffffffffffffffffff166338cc48316040518163ffffffff1660e01b8152600401602060405180830381600087803b158015610f5657600080fd5b505af1158015610f6a573d6000803e3d6000fd5b505050506040513d6020811015610f8057600080fd5b810190808051906020019092919050505073ffffffffffffffffffffffffffffffffffffffff1660008054906101000a900473ffffffffffffffffffffffffffffffffffffffff1673ffffffffffffffffffffffffffffffffffffffff16146110c857600160009054906101000a900473ffffffffffffffffffffffffffffffffffffffff1673ffffffffffffffffffffffffffffffffffffffff166338cc48316040518163ffffffff1660e01b8152600401602060405180830381600087803b15801561104d57600080fd5b505af1158015611061573d6000803e3d6000fd5b505050506040513d602081101561107757600080fd5b81019080805190602001909291905050506000806101000a81548173ffffffffffffffffffffffffffffffffffffffff021916908373ffffffffffffffffffffffffffffffffffffffff1602179055505b60008054906101000a900473ffffffffffffffffffffffffffffffffffffffff1673ffffffffffffffffffffffffffffffffffffffff1663abaa5f3e6040518163ffffffff1660e01b815260040160206040518083038186803b15801561112e57600080fd5b505afa158015611142573d6000803e3d6000fd5b505050506040513d602081101561115857600080fd5b8101908080519060200190929190505050905090565b606060008285019050808451101561118557600080fd5b600086602001905060008460200190505b8688602001018210156111be5781890151808288015250602082019150602081019050611196565b85935050505095945050505050565b60008073ffffffffffffffffffffffffffffffffffffffff16600160009054906101000a900473ffffffffffffffffffffffffffffffffffffffff1673ffffffffffffffffffffffffffffffffffffffff16148061125557506000611253600160009054906101000a900473ffffffffffffffffffffffffffffffffffffffff1661156c565b145b15611266576112646000611577565b505b600160009054906101000a900473ffffffffffffffffffffffffffffffffffffffff1673ffffffffffffffffffffffffffffffffffffffff166338cc48316040518163ffffffff1660e01b8152600401602060405180830381600087803b1580156112d057600080fd5b505af11580156112e4573d6000803e3d6000fd5b505050506040513d60208110156112fa57600080fd5b810190808051906020019092919050505073ffffffffffffffffffffffffffffffffffffffff1660008054906101000a900473ffffffffffffffffffffffffffffffffffffffff1673ffffffffffffffffffffffffffffffffffffffff161461144257600160009054906101000a900473ffffffffffffffffffffffffffffffffffffffff1673ffffffffffffffffffffffffffffffffffffffff166338cc48316040518163ffffffff1660e01b8152600401602060405180830381600087803b1580156113c757600080fd5b505af11580156113db573d6000803e3d6000fd5b505050506040513d60208110156113f157600080fd5b81019080805190602001909291905050506000806101000a81548173ffffffffffffffffffffffffffffffffffffffff021916908373ffffffffffffffffffffffffffffffffffffffff1602179055505b6060600467ffffffffffffffff8111801561145c57600080fd5b5060405190808252806020026020018201604052801561149057816020015b606081526020019060019003908161147b5790505b509050836000600481106114a057fe5b6020020151816000815181106114b257fe5b6020026020010181905250836001600481106114ca57fe5b6020020151816001815181106114dc57fe5b6020026020010181905250836002600481106114f457fe5b60200201518160028151811061150657fe5b60200260200101819052508360036004811061151e57fe5b60200201518160038151811061153057fe5b6020026020010181905250611546858285611588565b9150509392505050565b8060036000848152602001908152602001600020819055505050565b6000813b9050919050565b6000611581611ae8565b9050919050565b60008073ffffffffffffffffffffffffffffffffffffffff16600160009054906101000a900473ffffffffffffffffffffffffffffffffffffffff1673ffffffffffffffffffffffffffffffffffffffff1614806116105750600061160e600160009054906101000a900473ffffffffffffffffffffffffffffffffffffffff1661156c565b145b156116215761161f6000611577565b505b600160009054906101000a900473ffffffffffffffffffffffffffffffffffffffff1673ffffffffffffffffffffffffffffffffffffffff166338cc48316040518163ffffffff1660e01b8152600401602060405180830381600087803b15801561168b57600080fd5b505af115801561169f573d6000803e3d6000fd5b505050506040513d60208110156116b557600080fd5b810190808051906020019092919050505073ffffffffffffffffffffffffffffffffffffffff1660008054906101000a900473ffffffffffffffffffffffffffffffffffffffff1673ffffffffffffffffffffffffffffffffffffffff16146117fd57600160009054906101000a900473ffffffffffffffffffffffffffffffffffffffff1673ffffffffffffffffffffffffffffffffffffffff166338cc48316040518163ffffffff1660e01b8152600401602060405180830381600087803b15801561178257600080fd5b505af1158015611796573d6000803e3d6000fd5b505050506040513d60208110156117ac57600080fd5b81019080805190602001909291905050506000806101000a81548173ffffffffffffffffffffffffffffffffffffffff021916908373ffffffffffffffffffffffffffffffffffffffff1602179055505b60008060009054906101000a900473ffffffffffffffffffffffffffffffffffffffff1673ffffffffffffffffffffffffffffffffffffffff16632ef3accc86856040518363ffffffff1660e01b81526004018080602001838152602001828103825284818151815260200191508051906020019080838360005b83811015611893578082015181840152602081019050611878565b50505050905090810190601f1680156118c05780820380516001836020036101000a031916815260200191505b509350505050602060405180830381600087803b1580156118e057600080fd5b505af11580156118f4573d6000803e3d6000fd5b505050506040513d602081101561190a57600080fd5b81019080805190602001909291905050509050823a02670de0b6b3a76400000181111561193d576000801b915050611ae1565b60606119488561203f565b905060008054906101000a900473ffffffffffffffffffffffffffffffffffffffff1673ffffffffffffffffffffffffffffffffffffffff1663c55c1cb68360008985896040518663ffffffff1660e01b8152600401808581526020018060200180602001848152602001838103835286818151815260200191508051906020019080838360005b838110156119eb5780820151818401526020810190506119d0565b50505050905090810190601f168015611a185780820380516001836020036101000a031916815260200191505b50838103825285818151815260200191508051906020019080838360005b83811015611a51578082015181840152602081019050611a36565b50505050905090810190601f168015611a7e5780820380516001836020036101000a031916815260200191505b5096505050505050506020604051808303818588803b158015611aa057600080fd5b505af1158015611ab4573d6000803e3d6000fd5b50505050506040513d6020811015611acb57600080fd5b8101908080519060200190929190505050925050505b9392505050565b600080611b08731d3b2638a7cc9f2cb3d298a3da7a90b67e5506ed61156c565b1115611baa57731d3b2638a7cc9f2cb3d298a3da7a90b67e5506ed600160006101000a81548173ffffffffffffffffffffffffffffffffffffffff021916908373ffffffffffffffffffffffffffffffffffffffff160217905550611ba16040518060400160405280600b81526020017f6574685f6d61696e6e65740000000000000000000000000000000000000000008152506120bc565b6001905061203c565b6000611bc973c03a2615d5efaf5f49f60b7bb6583eaec212fdf161156c565b1115611c6b5773c03a2615d5efaf5f49f60b7bb6583eaec212fdf1600160006101000a81548173ffffffffffffffffffffffffffffffffffffffff021916908373ffffffffffffffffffffffffffffffffffffffff160217905550611c626040518060400160405280600c81526020017f6574685f726f707374656e3300000000000000000000000000000000000000008152506120bc565b6001905061203c565b6000611c8a73b7a07bcf2ba2f2703b24c0691b5278999c59ac7e61156c565b1115611d2c5773b7a07bcf2ba2f2703b24c0691b5278999c59ac7e600160006101000a81548173ffffffffffffffffffffffffffffffffffffffff021916908373ffffffffffffffffffffffffffffffffffffffff160217905550611d236040518060400160405280600981526020017f6574685f6b6f76616e00000000000000000000000000000000000000000000008152506120bc565b6001905061203c565b6000611d4b73146500cfd35b22e4a392fe0adc06de1a1368ed4861156c565b1115611ded5773146500cfd35b22e4a392fe0adc06de1a1368ed48600160006101000a81548173ffffffffffffffffffffffffffffffffffffffff021916908373ffffffffffffffffffffffffffffffffffffffff160217905550611de46040518060400160405280600b81526020017f6574685f72696e6b6562790000000000000000000000000000000000000000008152506120bc565b6001905061203c565b6000611e0c73a2998efd205fb9d4b4963afb70778d6354ad3a4161156c565b1115611eae5773a2998efd205fb9d4b4963afb70778d6354ad3a41600160006101000a81548173ffffffffffffffffffffffffffffffffffffffff021916908373ffffffffffffffffffffffffffffffffffffffff160217905550611ea56040518060400160405280600a81526020017f6574685f676f65726c69000000000000000000000000000000000000000000008152506120bc565b6001905061203c565b6000611ecd736f485c8bf6fc43ea212e93bbf8ce046c7f1cb47561156c565b1115611f3157736f485c8bf6fc43ea212e93bbf8ce046c7f1cb475600160006101000a81548173ffffffffffffffffffffffffffffffffffffffff021916908373ffffffffffffffffffffffffffffffffffffffff1602179055506001905061203c565b6000611f507320e12a1f859b3feae5fb2a0a32c18f5a65555bbf61156c565b1115611fb4577320e12a1f859b3feae5fb2a0a32c18f5a65555bbf600160006101000a81548173ffffffffffffffffffffffffffffffffffffffff021916908373ffffffffffffffffffffffffffffffffffffffff1602179055506001905061203c565b6000611fd37351efaf4c8b3c9afbd5ab9f4bbc82784ab6ef8faa61156c565b1115612037577351efaf4c8b3c9afbd5ab9f4bbc82784ab6ef8faa600160006101000a81548173ffffffffffffffffffffffffffffffffffffffff021916908373ffffffffffffffffffffffffffffffffffffffff1602179055506001905061203c565b600090505b90565b60606120496120d6565b612051612486565b61205d816104006120e2565b6120668161212c565b60005b83518110156120a55761209884828151811061208157fe5b60200260200101518361213a90919063ffffffff16565b8080600101915050612069565b506120af8161215f565b8060000151915050919050565b80600290805190602001906120d29291906124a0565b5050565b60405180590338823950565b60008190506000602082816120f357fe5b061461210c576020818161210357fe5b06602003810190505b808360200181815250506040518084526000815281810160405250505050565b61213781600461216d565b50565b612147826002835161218e565b61215a81836122ce90919063ffffffff16565b505050565b61216a81600761216d565b50565b61218a601f60058360ff16901b178361237990919063ffffffff16565b5050565b601781116121ba576121b58160058460ff16901b60ff16178461237990919063ffffffff16565b6122c9565b60ff81116121fb576121df601860058460ff16901b178461237990919063ffffffff16565b6121f5816001856123b99092919063ffffffff16565b506122c8565b61ffff811161223d57612221601960058460ff16901b178461237990919063ffffffff16565b612237816002856123b99092919063ffffffff16565b506122c7565b63ffffffff811161228157612265601a60058460ff16901b178461237990919063ffffffff16565b61227b816004856123b99092919063ffffffff16565b506122c6565b67ffffffffffffffff81116122c5576122ad601b60058460ff16901b178461237990919063ffffffff16565b6122c3816008856123b99092919063ffffffff16565b505b5b5b5b5b505050565b6122d6612486565b82602001518360000151518351011115612306576123058360026122ff86602001518651612420565b0261243c565b5b60008060008451905085518051602081830101945086518101825260208701935050505b6020811061234d578151835260208301925060208201915060208103905061232a565b60006001826020036101000a039050801983511681855116818117865250508694505050505092915050565b8160200151600183600001515101111561239f5761239e82600284602001510261243c565b5b815180516020818301018381536001820183525050505050565b6123c1612486565b8360200151846000015151830111156123ef576123ee8460026123e8876020015186612420565b0261243c565b5b60006001836101000a0390508451805184818301018684198251161781528582018352505050849150509392505050565b60008183111561243257829050612436565b8190505b92915050565b60608260000151905061244f83836120e2565b61245983826122ce565b50505050565b60405180608001604052806004905b606081526020019060019003908161246e5790505090565b604051806040016040528060608152602001600081525090565b828054600181600116156101000203166002900490600052602060002090601f016020900481019282601f106124e157805160ff191683800117855561250f565b8280016001018555821561250f579182015b8281111561250e5782518255916020019190600101906124f3565b5b50905061251c9190612520565b5090565b5b80821115612539576000816000905550600101612521565b509056fea26469706673582212202e2ffffd20a3e3b405df27d7f0be84a04aed40a2fede9aa2982d5afff36aef4064736f6c63430007000033",
  "immutableReferences": {},
  "source": "import \"./provableAPI_0.6.sol\";\n\npragma solidity 0.7.0;\n\ncontract CoinFlip is usingProvable {\n\n\tstruct Bet {\n\t\taddress player;\n\t\tuint betAmount;\n\t\tbool result;\n\t} \n\n\tmapping (bytes32 => Bet) betting; //queryId to Bet struct info\n\tmapping (address => bool) waiting; //mapping to see if msg.sender is waiting\n\n\tuint256 constant NUM_RANDOM_BYTES_REQUESTED = 1;\n\t// uint256 public latestNumber;\n\n\tuint256 public contractBalance;\n    // uint256 public betAmount;\n\n\tconstructor() {\n\t\tcontractBalance = 0;\n\t\tprovable_setProof(proofType_Ledger);\n\t\t// update(); //for random number oracle\n\t}\n\n\tevent LogNewProvableQuery(string description); //event to track when a new query is made to the provable oracle\n\tevent generatedRandomNumber(uint256 randomNumber); //event to track when random number is generated\n\tevent betPlaced(address bettor, bytes32 _queryId, uint256 _betAmount); //event to track when new bet is placed\n\tevent coinFlipResults(address bettor, bytes32 _queryId, uint256 wonAmount);\n\n\tfunction __callback(bytes32 _queryId, string memory _result, uint256 _choice, bytes memory _proof) public {\n\t\t// require(msg.sender == provable_cbAddress());\n\n\t\tuint256 randomNumber = uint256(keccak256(abi.encodePacked(_result))) % 2;\n\t\tif(_choice == randomNumber) {\n\t\t    uint256 wonAmount = betting[_queryId].betAmount * 2; //setting winnings to variable in order to emit event winnings\n\t\t    wonAmount += contractBalance; //returning betAmount x2 to contractBalance for winning\n\t\t    betting[_queryId].result = true; //winning coin flip will have result = true\n\t\t}\n\t\telse {\n\t\t    betting[_queryId].betAmount = 0; //will reset bet amount for that struct\n\t\t    betting[_queryId].result = false; //losing coin flip will have result = false\n\t\t}\n\t\temit generatedRandomNumber(randomNumber);\n// \t\temit coinFlipResults(msg.sender, _queryId, wonAmount);\n\t}\n    //place bet and query provable oracle from provable to simulate coin flipping.\n\tfunction update(uint256 amount) payable public {\n\t    // require(amount)\n\t\tuint256 QUERY_EXECUTION_DELAY = 0;\n\t\tuint256 GAS_FOR_CALLBACK = 200000;\n\t\t// bytes32 queryId = testRandom();//TEST PURPOSES LINE\n\t\tbytes32 queryId = provable_newRandomDSQuery(\n\t\t\tQUERY_EXECUTION_DELAY,\n\t\t\tNUM_RANDOM_BYTES_REQUESTED,\n\t\t\tGAS_FOR_CALLBACK\n\t\t); /***COMMENTED OUT TO TEST ORACLE FUNCTION WITHOUT HAVING TO CONNECT TO ORACLE EVERYTIME. WILL UNCOMMENT WHEN CONTRACT IS READY TO CONNECT TO ORACLE****/\n\t\tcontractBalance -= amount;\n\t\tbetting[queryId] = Bet({player: msg.sender, betAmount: amount, result: false}); //assigning a queryId & struct to the betting mapping and initializing the Bet struct with pertinent struct info\n\t\temit betPlaced(msg.sender, queryId, amount); //emit betPlaced event with pertinent info\n\t}\n\n\t//FUNCTION MIMICING ORACLE FUNCTIONALITY FOR TESTING PURPOSE.. IS NOT IN SAME ORDER AS REGULAR ORACLE FUNCTION BECAUSE IT IS JUST TESTING\n\t// function testRandom() public returns(uint256) {\n\t// \tbytes32 queryId = bytes32(keccak256(abi.encodePacked(msg.sender)));\n\t// \t__callback(queryId, \"1\", bytes32(keccak256(abi.encodePacked(msg.sender))));\n\t// \treturn queryId;\n\t// }\n\n\t//Add funds to contract balance (aka set contractBalance)\n\tfunction addBalance() public payable {\n\t\t// require(msg.value >=  minimumAddBalanceAmnt);\n\t\tcontractBalance += msg.value;\n\t}\n\n\tfunction withdrawBalance() public payable {\n\t\tmsg.sender.transfer(contractBalance);\n\t\tcontractBalance = 0;\n\t}\n\n\t//Pt.2 random() real function\n\t\n\n\t//Pt.2 random() fake function to speed up production process instead of waiting for response from ropsten network\n\n\n\t//Pt. 1 random() function. to choose heads/tails choice, run psudo-random coin flip, and run result if choser won/lost.\n\t// function random(uint256 choice) public payable returns(bool){\n\t//     require(choice == 0 || choice == 1, \"invalid choice\");\n\t//     //require(betAmount > 0);\n\t// \tbool success;\n\t// \tuint256 result = block.timestamp % 2;\n\t// \tif(result == choice){\n\t// \t    contractBalance += betAmount * 2;\n\t// \t    success = true;\n\t// \t\tbetAmount = 0;\n\t// \t}\n\t// \telse{\n\t// \t    success = false;\n\t// \t\tbetAmount = 0;\n\t// \t}\n\t// \treturn success;\n\t// }\n\n}",
  "sourcePath": "C:/Users/Slapi/pauls-projects/crypto-dev/CoinFlipDapp/contracts/CoinFlip.sol",
  "compiler": {
    "name": "solc",
    "version": "0.7.0+commit.9e61f92b.Emscripten.clang"
  },
  "schemaVersion": "3.3.3",
  "updatedAt": "2021-01-28T22:23:07.816Z",
  "networkType": "ethereum",
  "devdoc": {
    "kind": "dev",
    "methods": {
      "__callback(bytes32,string)": {
        "details": "The following `__callback` functions are just placeholders ideally      meant to be defined in child contract when proofs are used.      The function bodies simply silence compiler warnings."
      }
    },
    "version": 1
  },
  "userdoc": {
    "kind": "user",
    "methods": {},
    "version": 1
  }
}