{
  "contractName": "CoinFlip",
  "abi": [
    {
      "inputs": [],
      "stateMutability": "nonpayable",
      "type": "constructor"
    },
    {
      "anonymous": false,
      "inputs": [
        {
          "indexed": false,
          "internalType": "string",
          "name": "description",
          "type": "string"
        }
      ],
      "name": "LogNewProvableQuery",
      "type": "event"
    },
    {
      "anonymous": false,
      "inputs": [
        {
          "indexed": false,
          "internalType": "address",
          "name": "bettor",
          "type": "address"
        },
        {
          "indexed": false,
          "internalType": "bytes32",
          "name": "_queryId",
          "type": "bytes32"
        },
        {
          "indexed": false,
          "internalType": "uint256",
          "name": "_betAmount",
          "type": "uint256"
        }
      ],
      "name": "betPlaced",
      "type": "event"
    },
    {
      "anonymous": false,
      "inputs": [
        {
          "indexed": false,
          "internalType": "address",
          "name": "bettor",
          "type": "address"
        },
        {
          "indexed": false,
          "internalType": "bytes32",
          "name": "_queryId",
          "type": "bytes32"
        },
        {
          "indexed": false,
          "internalType": "uint256",
          "name": "wonAmount",
          "type": "uint256"
        }
      ],
      "name": "coinFlipResults",
      "type": "event"
    },
    {
      "anonymous": false,
      "inputs": [
        {
          "indexed": false,
          "internalType": "uint256",
          "name": "randomNumber",
          "type": "uint256"
        }
      ],
      "name": "generatedRandomNumber",
      "type": "event"
    },
    {
      "inputs": [],
      "name": "contractBalance",
      "outputs": [
        {
          "internalType": "uint256",
          "name": "",
          "type": "uint256"
        }
      ],
      "stateMutability": "view",
      "type": "function",
      "constant": true
    },
    {
      "inputs": [
        {
          "internalType": "bytes32",
          "name": "_myid",
          "type": "bytes32"
        },
        {
          "internalType": "string",
          "name": "_result",
          "type": "string"
        }
      ],
      "name": "__callback",
      "outputs": [],
      "stateMutability": "nonpayable",
      "type": "function"
    },
    {
      "inputs": [
        {
          "internalType": "bytes32",
          "name": "_queryId",
          "type": "bytes32"
        },
        {
          "internalType": "string",
          "name": "_result",
          "type": "string"
        },
        {
          "internalType": "bytes",
          "name": "_proof",
          "type": "bytes"
        }
      ],
      "name": "__callback",
      "outputs": [],
      "stateMutability": "nonpayable",
      "type": "function"
    },
    {
      "inputs": [
        {
          "internalType": "uint256",
          "name": "randomNumber",
          "type": "uint256"
        },
        {
          "internalType": "bytes32",
          "name": "_queryId",
          "type": "bytes32"
        }
      ],
      "name": "confirmResult",
      "outputs": [],
      "stateMutability": "payable",
      "type": "function",
      "payable": true
    },
    {
      "inputs": [],
      "name": "testRandom",
      "outputs": [
        {
          "internalType": "bytes32",
          "name": "",
          "type": "bytes32"
        }
      ],
      "stateMutability": "nonpayable",
      "type": "function"
    },
    {
      "inputs": [
        {
          "internalType": "uint256",
          "name": "_choice",
          "type": "uint256"
        },
        {
          "internalType": "uint256",
          "name": "amount",
          "type": "uint256"
        }
      ],
      "name": "update",
      "outputs": [],
      "stateMutability": "payable",
      "type": "function",
      "payable": true
    },
    {
      "inputs": [],
      "name": "addBalance",
      "outputs": [],
      "stateMutability": "payable",
      "type": "function",
      "payable": true
    },
    {
      "inputs": [],
      "name": "withdrawBalance",
      "outputs": [],
      "stateMutability": "payable",
      "type": "function",
      "payable": true
    }
  ],
  "bytecode": "0x60806040523480156200001157600080fd5b5060006008819055506200002f603060f81b6200003560201b60201c565b62000a29565b600073ffffffffffffffffffffffffffffffffffffffff16600160009054906101000a900473ffffffffffffffffffffffffffffffffffffffff1673ffffffffffffffffffffffffffffffffffffffff161480620000c557506000620000c3600160009054906101000a900473ffffffffffffffffffffffffffffffffffffffff166200037460201b60201c565b145b15620000df57620000dd60006200037f60201b60201c565b505b600160009054906101000a900473ffffffffffffffffffffffffffffffffffffffff1673ffffffffffffffffffffffffffffffffffffffff166338cc48316040518163ffffffff1660e01b8152600401602060405180830381600087803b1580156200014a57600080fd5b505af11580156200015f573d6000803e3d6000fd5b505050506040513d60208110156200017657600080fd5b810190808051906020019092919050505073ffffffffffffffffffffffffffffffffffffffff1660008054906101000a900473ffffffffffffffffffffffffffffffffffffffff1673ffffffffffffffffffffffffffffffffffffffff1614620002c257600160009054906101000a900473ffffffffffffffffffffffffffffffffffffffff1673ffffffffffffffffffffffffffffffffffffffff166338cc48316040518163ffffffff1660e01b8152600401602060405180830381600087803b1580156200024557600080fd5b505af11580156200025a573d6000803e3d6000fd5b505050506040513d60208110156200027157600080fd5b81019080805190602001909291905050506000806101000a81548173ffffffffffffffffffffffffffffffffffffffff021916908373ffffffffffffffffffffffffffffffffffffffff1602179055505b60008054906101000a900473ffffffffffffffffffffffffffffffffffffffff1673ffffffffffffffffffffffffffffffffffffffff1663688dcfd7826040518263ffffffff1660e01b815260040180827effffffffffffffffffffffffffffffffffffffffffffffffffffffffffffff19168152602001915050600060405180830381600087803b1580156200035857600080fd5b505af11580156200036d573d6000803e3d6000fd5b5050505050565b6000813b9050919050565b6000620003916200039860201b60201c565b9050919050565b600080620003c0731d3b2638a7cc9f2cb3d298a3da7a90b67e5506ed6200037460201b60201c565b11156200046c57731d3b2638a7cc9f2cb3d298a3da7a90b67e5506ed600160006101000a81548173ffffffffffffffffffffffffffffffffffffffff021916908373ffffffffffffffffffffffffffffffffffffffff160217905550620004626040518060400160405280600b81526020017f6574685f6d61696e6e65740000000000000000000000000000000000000000008152506200096760201b60201c565b6001905062000964565b60006200049373c03a2615d5efaf5f49f60b7bb6583eaec212fdf16200037460201b60201c565b11156200053f5773c03a2615d5efaf5f49f60b7bb6583eaec212fdf1600160006101000a81548173ffffffffffffffffffffffffffffffffffffffff021916908373ffffffffffffffffffffffffffffffffffffffff160217905550620005356040518060400160405280600c81526020017f6574685f726f707374656e3300000000000000000000000000000000000000008152506200096760201b60201c565b6001905062000964565b60006200056673b7a07bcf2ba2f2703b24c0691b5278999c59ac7e6200037460201b60201c565b1115620006125773b7a07bcf2ba2f2703b24c0691b5278999c59ac7e600160006101000a81548173ffffffffffffffffffffffffffffffffffffffff021916908373ffffffffffffffffffffffffffffffffffffffff160217905550620006086040518060400160405280600981526020017f6574685f6b6f76616e00000000000000000000000000000000000000000000008152506200096760201b60201c565b6001905062000964565b60006200063973146500cfd35b22e4a392fe0adc06de1a1368ed486200037460201b60201c565b1115620006e55773146500cfd35b22e4a392fe0adc06de1a1368ed48600160006101000a81548173ffffffffffffffffffffffffffffffffffffffff021916908373ffffffffffffffffffffffffffffffffffffffff160217905550620006db6040518060400160405280600b81526020017f6574685f72696e6b6562790000000000000000000000000000000000000000008152506200096760201b60201c565b6001905062000964565b60006200070c73a2998efd205fb9d4b4963afb70778d6354ad3a416200037460201b60201c565b1115620007b85773a2998efd205fb9d4b4963afb70778d6354ad3a41600160006101000a81548173ffffffffffffffffffffffffffffffffffffffff021916908373ffffffffffffffffffffffffffffffffffffffff160217905550620007ae6040518060400160405280600a81526020017f6574685f676f65726c69000000000000000000000000000000000000000000008152506200096760201b60201c565b6001905062000964565b6000620007df736f485c8bf6fc43ea212e93bbf8ce046c7f1cb4756200037460201b60201c565b11156200084557736f485c8bf6fc43ea212e93bbf8ce046c7f1cb475600160006101000a81548173ffffffffffffffffffffffffffffffffffffffff021916908373ffffffffffffffffffffffffffffffffffffffff1602179055506001905062000964565b60006200086c7320e12a1f859b3feae5fb2a0a32c18f5a65555bbf6200037460201b60201c565b1115620008d2577320e12a1f859b3feae5fb2a0a32c18f5a65555bbf600160006101000a81548173ffffffffffffffffffffffffffffffffffffffff021916908373ffffffffffffffffffffffffffffffffffffffff1602179055506001905062000964565b6000620008f97351efaf4c8b3c9afbd5ab9f4bbc82784ab6ef8faa6200037460201b60201c565b11156200095f577351efaf4c8b3c9afbd5ab9f4bbc82784ab6ef8faa600160006101000a81548173ffffffffffffffffffffffffffffffffffffffff021916908373ffffffffffffffffffffffffffffffffffffffff1602179055506001905062000964565b600090505b90565b80600290805190602001906200097f92919062000983565b5050565b828054600181600116156101000203166002900490600052602060002090601f016020900481019282601f10620009c657805160ff1916838001178555620009f7565b82800160010185558215620009f7579182015b82811115620009f6578251825591602001919060010190620009d9565b5b50905062000a06919062000a0a565b5090565b5b8082111562000a2557600081600090555060010162000a0b565b5090565b61290a8062000a396000396000f3fe60806040526004361061007b5760003560e01c80635fd8c7101161004e5780635fd8c7101461032b5780638b7afe2e14610335578063b163cc3814610360578063fbddd14b1461036a5761007b565b80630ce4dad01461008057806327dc297e146100b85780632fb565e81461018a57806338bbfa50146101c2575b600080fd5b6100b66004803603604081101561009657600080fd5b810190808035906020019092919080359060200190929190505050610395565b005b3480156100c457600080fd5b50610188600480360360408110156100db57600080fd5b81019080803590602001909291908035906020019064010000000081111561010257600080fd5b82018360208201111561011457600080fd5b8035906020019184600183028401116401000000008311171561013657600080fd5b91908080601f016020809104026020016040519081016040528093929190818152602001838380828437600081840152601f19601f8201169050808301925050505050505091929192905050506104f5565b005b6101c0600480360360408110156101a057600080fd5b81019080803590602001909291908035906020019092919050505061054f565b005b3480156101ce57600080fd5b50610329600480360360608110156101e557600080fd5b81019080803590602001909291908035906020019064010000000081111561020c57600080fd5b82018360208201111561021e57600080fd5b8035906020019184600183028401116401000000008311171561024057600080fd5b91908080601f016020809104026020016040519081016040528093929190818152602001838380828437600081840152601f19601f820116905080830192505050505050509192919290803590602001906401000000008111156102a357600080fd5b8201836020820111156102b557600080fd5b803590602001918460018302840111640100000000831117156102d757600080fd5b91908080601f016020809104026020016040519081016040528093929190818152602001838380828437600081840152601f19601f820116905080830192505050505050509192919290505050610692565b005b61033361079b565b005b34801561034157600080fd5b5061034a6107ee565b6040518082815260200191505060405180910390f35b6103686107f4565b005b34801561037657600080fd5b5061037f610806565b6040518082815260200191505060405180910390f35b60066000828152602001908152602001600020600101548214156104025760026005540260086000828254019250508190555060056000905560016006600083815260200190815260200160002060030160006101000a81548160ff021916908315150217905550610438565b60056000905560006006600083815260200190815260200160002060030160006101000a81548160ff0219169083151502179055505b60066000828152602001908152602001600020600080820160006101000a81549073ffffffffffffffffffffffffffffffffffffffff0219169055600182016000905560028201600090556003820160006101000a81549060ff021916905550506000600760003373ffffffffffffffffffffffffffffffffffffffff1673ffffffffffffffffffffffffffffffffffffffff16815260200190815260200160002060006101000a81548160ff0219169083151502179055505050565b61054b8282600067ffffffffffffffff8111801561051257600080fd5b506040519080825280601f01601f1916602001820160405280156105455781602001600182028036833780820191505090505b50610692565b5050565b60008062030d4090506000610566836001846108a8565b905060405180608001604052803373ffffffffffffffffffffffffffffffffffffffff168152602001868152602001858152602001600015158152506006600083815260200190815260200160002060008201518160000160006101000a81548173ffffffffffffffffffffffffffffffffffffffff021916908373ffffffffffffffffffffffffffffffffffffffff160217905550602082015181600101556040820151816002015560608201518160030160006101000a81548160ff0219169083151502179055509050506001600760003373ffffffffffffffffffffffffffffffffffffffff1673ffffffffffffffffffffffffffffffffffffffff16815260200190815260200160002060006101000a81548160ff0219169083151502179055505050505050565b61069a610ecd565b73ffffffffffffffffffffffffffffffffffffffff163373ffffffffffffffffffffffffffffffffffffffff16146106d157600080fd5b60006002836040516020018082805190602001908083835b6020831061070c57805182526020820191506020810190506020830392506106e9565b6001836020036101000a0380198251168184511680821785525050505050509050019150506040516020818303038152906040528051906020012060001c8161075157fe5b06905061075e8185610395565b7fc13d60fe9dffdb6908d2d446cd18134373a51db0738ee04f296eeb9128121cbc816040518082815260200191505060405180910390a150505050565b3373ffffffffffffffffffffffffffffffffffffffff166108fc6008549081150290604051600060405180830381858888f193505050501580156107e3573d6000803e3d6000fd5b506000600881905550565b60085481565b34600860008282540192505081905550565b6000807f9c22ff5f21f0b81b113e63f7db6da94fedef11b2119b4088b89664fb9a3cb65890506108a1816040518060400160405280600181526020017f31000000000000000000000000000000000000000000000000000000000000008152506040518060400160405280600481526020017f7465737400000000000000000000000000000000000000000000000000000000815250610692565b8091505090565b600080831180156108ba575060208311155b6108c357600080fd5b600a840293506060600167ffffffffffffffff811180156108e357600080fd5b506040519080825280601f01601f1916602001820160405280156109165781602001600182028036833780820191505090505b5090508360f81b8160008151811061092a57fe5b60200101907effffffffffffffffffffffffffffffffffffffffffffffffffffffffffffff1916908160001a9053506060602067ffffffffffffffff8111801561097357600080fd5b506040519080825280601f01601f1916602001820160405280156109a65781602001600182028036833780820191505090505b5090506060602067ffffffffffffffff811180156109c357600080fd5b506040519080825280601f01601f1916602001820160405280156109f65781602001600182028036833780820191505090505b5090506000610a036111ea565b9050602083524241186001430340186020840152602082528060208301526060602067ffffffffffffffff81118015610a3b57600080fd5b506040519080825280601f01601f191660200182016040528015610a6e5781602001600182028036833780820191505090505b5090508860208201526060600867ffffffffffffffff81118015610a9157600080fd5b506040519080825280601f01601f191660200182016040528015610ac45781602001600182028036833780820191505090505b509050610ad78260186008846000611505565b50610ae06127f6565b60405180608001604052808781526020018881526020018681526020018481525090506000610b456040518060400160405280600681526020017f72616e646f6d0000000000000000000000000000000000000000000000000000815250838c611564565b90506060600867ffffffffffffffff81118015610b6157600080fd5b506040519080825280601f01601f191660200182016040528015610b945781602001600182028036833780820191505090505b50905060208401517f0100000000000000000000000000000000000000000000000000000000000000810460278301537e01000000000000000000000000000000000000000000000000000000000000810460268301537d010000000000000000000000000000000000000000000000000000000000810460258301537c0100000000000000000000000000000000000000000000000000000000810460248301537b01000000000000000000000000000000000000000000000000000000810460238301537a010000000000000000000000000000000000000000000000000000810460228301537901000000000000000000000000000000000000000000000000008104602183015378010000000000000000000000000000000000000000000000008104602083015350610eba828285600160048110610cd357fe5b6020020151600287600060048110610ce757fe5b60200201516040518082805190602001908083835b60208310610d1f5780518252602082019150602081019050602083039250610cfc565b6001836020036101000a038019825116818451168082178552505050505050905001915050602060405180830381855afa158015610d61573d6000803e3d6000fd5b5050506040513d6020811015610d7657600080fd5b810190808051906020019092919050505087600260048110610d9457fe5b60200201516040516020018085805190602001908083835b60208310610dcf5780518252602082019150602081019050602083039250610dac565b6001836020036101000a03801982511681845116808217855250505050505090500184805190602001908083835b60208310610e205780518252602082019150602081019050602083039250610dfd565b6001836020036101000a03801982511681845116808217855250505050505090500183815260200182805190602001908083835b60208310610e775780518252602082019150602081019050602083039250610e54565b6001836020036101000a038019825116818451168082178552505050505050905001945050505050604051602081830303815290604052805190602001206118e7565b8199505050505050505050509392505050565b60008073ffffffffffffffffffffffffffffffffffffffff16600160009054906101000a900473ffffffffffffffffffffffffffffffffffffffff1673ffffffffffffffffffffffffffffffffffffffff161480610f5557506000610f53600160009054906101000a900473ffffffffffffffffffffffffffffffffffffffff16611903565b145b15610f6657610f64600061190e565b505b600160009054906101000a900473ffffffffffffffffffffffffffffffffffffffff1673ffffffffffffffffffffffffffffffffffffffff166338cc48316040518163ffffffff1660e01b8152600401602060405180830381600087803b158015610fd057600080fd5b505af1158015610fe4573d6000803e3d6000fd5b505050506040513d6020811015610ffa57600080fd5b810190808051906020019092919050505073ffffffffffffffffffffffffffffffffffffffff1660008054906101000a900473ffffffffffffffffffffffffffffffffffffffff1673ffffffffffffffffffffffffffffffffffffffff161461114257600160009054906101000a900473ffffffffffffffffffffffffffffffffffffffff1673ffffffffffffffffffffffffffffffffffffffff166338cc48316040518163ffffffff1660e01b8152600401602060405180830381600087803b1580156110c757600080fd5b505af11580156110db573d6000803e3d6000fd5b505050506040513d60208110156110f157600080fd5b81019080805190602001909291905050506000806101000a81548173ffffffffffffffffffffffffffffffffffffffff021916908373ffffffffffffffffffffffffffffffffffffffff1602179055505b60008054906101000a900473ffffffffffffffffffffffffffffffffffffffff1673ffffffffffffffffffffffffffffffffffffffff1663c281d19e6040518163ffffffff1660e01b8152600401602060405180830381600087803b1580156111aa57600080fd5b505af11580156111be573d6000803e3d6000fd5b505050506040513d60208110156111d457600080fd5b8101908080519060200190929190505050905090565b60008073ffffffffffffffffffffffffffffffffffffffff16600160009054906101000a900473ffffffffffffffffffffffffffffffffffffffff1673ffffffffffffffffffffffffffffffffffffffff16148061127257506000611270600160009054906101000a900473ffffffffffffffffffffffffffffffffffffffff16611903565b145b1561128357611281600061190e565b505b600160009054906101000a900473ffffffffffffffffffffffffffffffffffffffff1673ffffffffffffffffffffffffffffffffffffffff166338cc48316040518163ffffffff1660e01b8152600401602060405180830381600087803b1580156112ed57600080fd5b505af1158015611301573d6000803e3d6000fd5b505050506040513d602081101561131757600080fd5b810190808051906020019092919050505073ffffffffffffffffffffffffffffffffffffffff1660008054906101000a900473ffffffffffffffffffffffffffffffffffffffff1673ffffffffffffffffffffffffffffffffffffffff161461145f57600160009054906101000a900473ffffffffffffffffffffffffffffffffffffffff1673ffffffffffffffffffffffffffffffffffffffff166338cc48316040518163ffffffff1660e01b8152600401602060405180830381600087803b1580156113e457600080fd5b505af11580156113f8573d6000803e3d6000fd5b505050506040513d602081101561140e57600080fd5b81019080805190602001909291905050506000806101000a81548173ffffffffffffffffffffffffffffffffffffffff021916908373ffffffffffffffffffffffffffffffffffffffff1602179055505b60008054906101000a900473ffffffffffffffffffffffffffffffffffffffff1673ffffffffffffffffffffffffffffffffffffffff1663abaa5f3e6040518163ffffffff1660e01b815260040160206040518083038186803b1580156114c557600080fd5b505afa1580156114d9573d6000803e3d6000fd5b505050506040513d60208110156114ef57600080fd5b8101908080519060200190929190505050905090565b606060008285019050808451101561151c57600080fd5b600086602001905060008460200190505b868860200101821015611555578189015180828801525060208201915060208101905061152d565b85935050505095945050505050565b60008073ffffffffffffffffffffffffffffffffffffffff16600160009054906101000a900473ffffffffffffffffffffffffffffffffffffffff1673ffffffffffffffffffffffffffffffffffffffff1614806115ec575060006115ea600160009054906101000a900473ffffffffffffffffffffffffffffffffffffffff16611903565b145b156115fd576115fb600061190e565b505b600160009054906101000a900473ffffffffffffffffffffffffffffffffffffffff1673ffffffffffffffffffffffffffffffffffffffff166338cc48316040518163ffffffff1660e01b8152600401602060405180830381600087803b15801561166757600080fd5b505af115801561167b573d6000803e3d6000fd5b505050506040513d602081101561169157600080fd5b810190808051906020019092919050505073ffffffffffffffffffffffffffffffffffffffff1660008054906101000a900473ffffffffffffffffffffffffffffffffffffffff1673ffffffffffffffffffffffffffffffffffffffff16146117d957600160009054906101000a900473ffffffffffffffffffffffffffffffffffffffff1673ffffffffffffffffffffffffffffffffffffffff166338cc48316040518163ffffffff1660e01b8152600401602060405180830381600087803b15801561175e57600080fd5b505af1158015611772573d6000803e3d6000fd5b505050506040513d602081101561178857600080fd5b81019080805190602001909291905050506000806101000a81548173ffffffffffffffffffffffffffffffffffffffff021916908373ffffffffffffffffffffffffffffffffffffffff1602179055505b6060600467ffffffffffffffff811180156117f357600080fd5b5060405190808252806020026020018201604052801561182757816020015b60608152602001906001900390816118125790505b5090508360006004811061183757fe5b60200201518160008151811061184957fe5b60200260200101819052508360016004811061186157fe5b60200201518160018151811061187357fe5b60200260200101819052508360026004811061188b57fe5b60200201518160028151811061189d57fe5b6020026020010181905250836003600481106118b557fe5b6020020151816003815181106118c757fe5b60200260200101819052506118dd85828561191f565b9150509392505050565b8060036000848152602001908152602001600020819055505050565b6000813b9050919050565b6000611918611e7f565b9050919050565b60008073ffffffffffffffffffffffffffffffffffffffff16600160009054906101000a900473ffffffffffffffffffffffffffffffffffffffff1673ffffffffffffffffffffffffffffffffffffffff1614806119a7575060006119a5600160009054906101000a900473ffffffffffffffffffffffffffffffffffffffff16611903565b145b156119b8576119b6600061190e565b505b600160009054906101000a900473ffffffffffffffffffffffffffffffffffffffff1673ffffffffffffffffffffffffffffffffffffffff166338cc48316040518163ffffffff1660e01b8152600401602060405180830381600087803b158015611a2257600080fd5b505af1158015611a36573d6000803e3d6000fd5b505050506040513d6020811015611a4c57600080fd5b810190808051906020019092919050505073ffffffffffffffffffffffffffffffffffffffff1660008054906101000a900473ffffffffffffffffffffffffffffffffffffffff1673ffffffffffffffffffffffffffffffffffffffff1614611b9457600160009054906101000a900473ffffffffffffffffffffffffffffffffffffffff1673ffffffffffffffffffffffffffffffffffffffff166338cc48316040518163ffffffff1660e01b8152600401602060405180830381600087803b158015611b1957600080fd5b505af1158015611b2d573d6000803e3d6000fd5b505050506040513d6020811015611b4357600080fd5b81019080805190602001909291905050506000806101000a81548173ffffffffffffffffffffffffffffffffffffffff021916908373ffffffffffffffffffffffffffffffffffffffff1602179055505b60008060009054906101000a900473ffffffffffffffffffffffffffffffffffffffff1673ffffffffffffffffffffffffffffffffffffffff16632ef3accc86856040518363ffffffff1660e01b81526004018080602001838152602001828103825284818151815260200191508051906020019080838360005b83811015611c2a578082015181840152602081019050611c0f565b50505050905090810190601f168015611c575780820380516001836020036101000a031916815260200191505b509350505050602060405180830381600087803b158015611c7757600080fd5b505af1158015611c8b573d6000803e3d6000fd5b505050506040513d6020811015611ca157600080fd5b81019080805190602001909291905050509050823a02670de0b6b3a764000001811115611cd4576000801b915050611e78565b6060611cdf856123d6565b905060008054906101000a900473ffffffffffffffffffffffffffffffffffffffff1673ffffffffffffffffffffffffffffffffffffffff1663c55c1cb68360008985896040518663ffffffff1660e01b8152600401808581526020018060200180602001848152602001838103835286818151815260200191508051906020019080838360005b83811015611d82578082015181840152602081019050611d67565b50505050905090810190601f168015611daf5780820380516001836020036101000a031916815260200191505b50838103825285818151815260200191508051906020019080838360005b83811015611de8578082015181840152602081019050611dcd565b50505050905090810190601f168015611e155780820380516001836020036101000a031916815260200191505b5096505050505050506020604051808303818588803b158015611e3757600080fd5b505af1158015611e4b573d6000803e3d6000fd5b50505050506040513d6020811015611e6257600080fd5b8101908080519060200190929190505050925050505b9392505050565b600080611e9f731d3b2638a7cc9f2cb3d298a3da7a90b67e5506ed611903565b1115611f4157731d3b2638a7cc9f2cb3d298a3da7a90b67e5506ed600160006101000a81548173ffffffffffffffffffffffffffffffffffffffff021916908373ffffffffffffffffffffffffffffffffffffffff160217905550611f386040518060400160405280600b81526020017f6574685f6d61696e6e6574000000000000000000000000000000000000000000815250612453565b600190506123d3565b6000611f6073c03a2615d5efaf5f49f60b7bb6583eaec212fdf1611903565b11156120025773c03a2615d5efaf5f49f60b7bb6583eaec212fdf1600160006101000a81548173ffffffffffffffffffffffffffffffffffffffff021916908373ffffffffffffffffffffffffffffffffffffffff160217905550611ff96040518060400160405280600c81526020017f6574685f726f707374656e330000000000000000000000000000000000000000815250612453565b600190506123d3565b600061202173b7a07bcf2ba2f2703b24c0691b5278999c59ac7e611903565b11156120c35773b7a07bcf2ba2f2703b24c0691b5278999c59ac7e600160006101000a81548173ffffffffffffffffffffffffffffffffffffffff021916908373ffffffffffffffffffffffffffffffffffffffff1602179055506120ba6040518060400160405280600981526020017f6574685f6b6f76616e0000000000000000000000000000000000000000000000815250612453565b600190506123d3565b60006120e273146500cfd35b22e4a392fe0adc06de1a1368ed48611903565b11156121845773146500cfd35b22e4a392fe0adc06de1a1368ed48600160006101000a81548173ffffffffffffffffffffffffffffffffffffffff021916908373ffffffffffffffffffffffffffffffffffffffff16021790555061217b6040518060400160405280600b81526020017f6574685f72696e6b656279000000000000000000000000000000000000000000815250612453565b600190506123d3565b60006121a373a2998efd205fb9d4b4963afb70778d6354ad3a41611903565b11156122455773a2998efd205fb9d4b4963afb70778d6354ad3a41600160006101000a81548173ffffffffffffffffffffffffffffffffffffffff021916908373ffffffffffffffffffffffffffffffffffffffff16021790555061223c6040518060400160405280600a81526020017f6574685f676f65726c6900000000000000000000000000000000000000000000815250612453565b600190506123d3565b6000612264736f485c8bf6fc43ea212e93bbf8ce046c7f1cb475611903565b11156122c857736f485c8bf6fc43ea212e93bbf8ce046c7f1cb475600160006101000a81548173ffffffffffffffffffffffffffffffffffffffff021916908373ffffffffffffffffffffffffffffffffffffffff160217905550600190506123d3565b60006122e77320e12a1f859b3feae5fb2a0a32c18f5a65555bbf611903565b111561234b577320e12a1f859b3feae5fb2a0a32c18f5a65555bbf600160006101000a81548173ffffffffffffffffffffffffffffffffffffffff021916908373ffffffffffffffffffffffffffffffffffffffff160217905550600190506123d3565b600061236a7351efaf4c8b3c9afbd5ab9f4bbc82784ab6ef8faa611903565b11156123ce577351efaf4c8b3c9afbd5ab9f4bbc82784ab6ef8faa600160006101000a81548173ffffffffffffffffffffffffffffffffffffffff021916908373ffffffffffffffffffffffffffffffffffffffff160217905550600190506123d3565b600090505b90565b60606123e061246d565b6123e861281d565b6123f481610400612479565b6123fd816124c3565b60005b835181101561243c5761242f84828151811061241857fe5b6020026020010151836124d190919063ffffffff16565b8080600101915050612400565b50612446816124f6565b8060000151915050919050565b8060029080519060200190612469929190612837565b5050565b60405180590338823950565b600081905060006020828161248a57fe5b06146124a3576020818161249a57fe5b06602003810190505b808360200181815250506040518084526000815281810160405250505050565b6124ce816004612504565b50565b6124de8260028351612525565b6124f1818361266590919063ffffffff16565b505050565b612501816007612504565b50565b612521601f60058360ff16901b178361271090919063ffffffff16565b5050565b601781116125515761254c8160058460ff16901b60ff16178461271090919063ffffffff16565b612660565b60ff811161259257612576601860058460ff16901b178461271090919063ffffffff16565b61258c816001856127509092919063ffffffff16565b5061265f565b61ffff81116125d4576125b8601960058460ff16901b178461271090919063ffffffff16565b6125ce816002856127509092919063ffffffff16565b5061265e565b63ffffffff8111612618576125fc601a60058460ff16901b178461271090919063ffffffff16565b612612816004856127509092919063ffffffff16565b5061265d565b67ffffffffffffffff811161265c57612644601b60058460ff16901b178461271090919063ffffffff16565b61265a816008856127509092919063ffffffff16565b505b5b5b5b5b505050565b61266d61281d565b8260200151836000015151835101111561269d5761269c836002612696866020015186516127b7565b026127d3565b5b60008060008451905085518051602081830101945086518101825260208701935050505b602081106126e457815183526020830192506020820191506020810390506126c1565b60006001826020036101000a039050801983511681855116818117865250508694505050505092915050565b81602001516001836000015151011115612736576127358260028460200151026127d3565b5b815180516020818301018381536001820183525050505050565b61275861281d565b8360200151846000015151830111156127865761278584600261277f8760200151866127b7565b026127d3565b5b60006001836101000a0390508451805184818301018684198251161781528582018352505050849150509392505050565b6000818311156127c9578290506127cd565b8190505b92915050565b6060826000015190506127e68383612479565b6127f08382612665565b50505050565b60405180608001604052806004905b60608152602001906001900390816128055790505090565b604051806040016040528060608152602001600081525090565b828054600181600116156101000203166002900490600052602060002090601f016020900481019282601f1061287857805160ff19168380011785556128a6565b828001600101855582156128a6579182015b828111156128a557825182559160200191906001019061288a565b5b5090506128b391906128b7565b5090565b5b808211156128d05760008160009055506001016128b8565b509056fea2646970667358221220606c3279b9f397bfdcc8e92b1f810c90c5b2060dbd31d64a7654eed7768f5abe64736f6c63430007000033",
  "immutableReferences": {},
  "source": "import \"./provableAPI_0.6.sol\";\n\npragma solidity 0.7.0;\n\ncontract CoinFlip is usingProvable {\n\n\tstruct Bet {\n\t\taddress player;\n\t\tuint256 choice;\n\t\tuint256 betAmount;\n\t\tbool result;\n\t} \n\t\n\tuint256 betAmount;\n\n\tmapping (bytes32 => Bet) betting; //queryId to Bet struct info\n\tmapping (address => bool) waiting; //mapping to see if msg.sender is waiting for query response\n\n\tuint256 constant NUM_RANDOM_BYTES_REQUESTED = 1;\n\t// uint256 public latestNumber;\n\n\tuint256 public contractBalance;\n    // uint256 public betAmount;\n\n\tconstructor() {\n\t\tcontractBalance = 0;\n\t\tprovable_setProof(proofType_Ledger);\n// \t\tupdate();\n\t}\n\n\tevent LogNewProvableQuery(string description); //event to track when a new query is made to the provable oracle\n\tevent generatedRandomNumber(uint256 randomNumber); //event to track when random number is generated\n\tevent betPlaced(address bettor, bytes32 _queryId, uint256 _betAmount); //event to track when new bet is placed\n\tevent coinFlipResults(address bettor, bytes32 _queryId, uint256 wonAmount);\n\n// \tfunction setBetAndNewGame(uint256 _choice) payable public {\n// \t    Bet storage currentBet;\n// \t\tcurrentBet.player = msg.sender;\n// \t\tcurrentBet.choice = _choice;\n// \t\tupdate();\n// \t}\n\n\tfunction __callback(bytes32 _queryId, string memory _result, bytes memory _proof) override public {\n\t\trequire(msg.sender == provable_cbAddress());\n\n\t\tuint256 randomNumber = uint256(keccak256(abi.encodePacked(_result))) % 2; //will take response from oracle and turn it into a 0 or 1\n\t\tconfirmResult(randomNumber, _queryId); //calls confirmResult funcion with arguments passed from this function\n\n\t\temit generatedRandomNumber(randomNumber);\n// \t\temit coinFlipResults(msg.sender, _queryId, wonAmount);\n\t}\n\n\tfunction confirmResult(uint randomNumber, bytes32 _queryId) public payable {\n\t\tif(randomNumber == betting[_queryId].choice) {\n\t\t\tcontractBalance += betAmount * 2; //winnings payout\n\t\t\tdelete(betAmount); //reset betAmount to 0\n\t\t\tbetting[_queryId].result = true; //result will be true if won\n\t\t}\n\t\telse {\n\t\t\tdelete(betAmount); //reset betAmount to 0\n\t\t\tbetting[_queryId].result = false; //result will be false if lost\n\t\t}\n\t\tdelete(betting[_queryId]); //reset query id to default value for next bet\n\t\twaiting[msg.sender] = false; //will set waiting status to false\n\n\t}\n\t\t//FUNCTION MIMICING ORACLE FUNCTIONALITY FOR TESTING PURPOSE.. IS NOT IN SAME ORDER AS REGULAR ORACLE FUNCTION BECAUSE IT IS JUST TESTING\n\tfunction testRandom() public returns(bytes32) {\n\t\tbytes32 queryId = bytes32(keccak256(\"test\"));\n\t\t__callback(queryId, \"1\", bytes(\"test\"));\n\t\treturn queryId;\n\t}\n\n    //place bet and query provable oracle from provable to simulate coin flipping.\n\tfunction update(uint256 _choice, uint256 amount) payable public {\n\t    // require(amount)\n\t\tuint256 QUERY_EXECUTION_DELAY = 0;\n\t\tuint256 GAS_FOR_CALLBACK = 200000;\n\t\t// bytes32 queryId = testRandom();//TEST PURPOSES LINE\n\t\tbytes32 queryId = provable_newRandomDSQuery(\n\t\t\tQUERY_EXECUTION_DELAY,\n\t\t\tNUM_RANDOM_BYTES_REQUESTED,\n\t\t\tGAS_FOR_CALLBACK\n\t\t);\n\t\t// betting[queryId] = Bet({player: msg.sender, betAmount: amount, choice: _choice}); //assigning a queryId & struct to the betting mapping and initializing the Bet struct with pertinent struct info\n\t\tbetting[queryId] = Bet({player: msg.sender, choice: _choice, betAmount: amount, result: false});\n\t\twaiting[msg.sender] = true;\n\t\t// emit betPlaced(currentBet.player, queryId, currentBet.betAmount); //emit betPlaced event with pertinent info\n\t}\n\n\t//Add funds to contract balance (aka set contractBalance)\n\tfunction addBalance() public payable {\n\t\t// require(msg.value >=  minimumAddBalanceAmnt);\n\t\tcontractBalance += msg.value;\n\t}\n\t\n// \tfunction setBet(uint256 amount)  public payable {\n// \t    contractBalance -= amount;\n// \t    amount += betAmount;\n// \t}\n\n\tfunction withdrawBalance() public payable {\n\t\tmsg.sender.transfer(contractBalance);\n\t\tcontractBalance = 0;\n\t}\n\n\n\n\t//Pt.2 random() real function\n\t\n\n\t//Pt.2 random() fake function to speed up production process instead of waiting for response from ropsten network\n\n\n\t//Pt. 1 random() function. to choose heads/tails choice, run psudo-random coin flip, and run result if choser won/lost.\n\t// function random(uint256 choice) public payable returns(bool){\n\t//     require(choice == 0 || choice == 1, \"invalid choice\");\n\t//     //require(betAmount > 0);\n\t// \tbool success;\n\t// \tuint256 result = block.timestamp % 2;\n\t// \tif(result == choice){\n\t// \t    contractBalance += betAmount * 2;\n\t// \t    success = true;\n\t// \t\tbetAmount = 0;\n\t// \t}\n\t// \telse{\n\t// \t    success = false;\n\t// \t\tbetAmount = 0;\n\t// \t}\n\t// \treturn success;\n\t// }\n\n}",
  "sourcePath": "C:/Users/Slapi/pauls-projects/crypto-dev/CoinFlipDapp/contracts/CoinFlip.sol",
  "compiler": {
    "name": "solc",
    "version": "0.7.0+commit.9e61f92b.Emscripten.clang"
  },
  "schemaVersion": "3.3.3",
  "updatedAt": "2021-01-29T20:44:43.016Z",
  "networkType": "ethereum",
  "devdoc": {
    "kind": "dev",
    "methods": {
      "__callback(bytes32,string)": {
        "details": "The following `__callback` functions are just placeholders ideally      meant to be defined in child contract when proofs are used.      The function bodies simply silence compiler warnings."
      }
    },
    "version": 1
  },
  "userdoc": {
    "kind": "user",
    "methods": {},
    "version": 1
  }
}