{
  "contractName": "CoinFlip",
  "abi": [
    {
      "inputs": [],
      "name": "betAmount",
      "outputs": [
        {
          "internalType": "uint256",
          "name": "",
          "type": "uint256"
        }
      ],
      "stateMutability": "view",
      "type": "function",
      "constant": true
    },
    {
      "inputs": [],
      "name": "contractBalance",
      "outputs": [
        {
          "internalType": "uint256",
          "name": "",
          "type": "uint256"
        }
      ],
      "stateMutability": "view",
      "type": "function",
      "constant": true
    },
    {
      "inputs": [],
      "name": "addBalance",
      "outputs": [],
      "stateMutability": "payable",
      "type": "function",
      "payable": true
    },
    {
      "inputs": [],
      "name": "withdrawBalance",
      "outputs": [],
      "stateMutability": "payable",
      "type": "function",
      "payable": true
    },
    {
      "inputs": [
        {
          "internalType": "uint256",
          "name": "amount",
          "type": "uint256"
        }
      ],
      "name": "setBet",
      "outputs": [],
      "stateMutability": "payable",
      "type": "function",
      "payable": true
    },
    {
      "inputs": [
        {
          "internalType": "uint256",
          "name": "choice",
          "type": "uint256"
        }
      ],
      "name": "random",
      "outputs": [
        {
          "internalType": "bool",
          "name": "",
          "type": "bool"
        }
      ],
      "stateMutability": "payable",
      "type": "function",
      "payable": true
    }
  ],
  "bytecode": "0x608060405234801561001057600080fd5b506102b2806100206000396000f3fe6080604052600436106100555760003560e01c80635fd8c7101461005a5780638b7afe2e14610064578063b163cc381461008f578063b863bd3714610099578063d24257c0146100dd578063e8399cc614610108575b600080fd5b610062610136565b005b34801561007057600080fd5b50610079610170565b6040518082815260200191505060405180910390f35b610097610176565b005b6100c5600480360360208110156100af57600080fd5b8101908080359060200190929190505050610187565b60405180821515815260200191505060405180910390f35b3480156100e957600080fd5b506100f261025d565b6040518082815260200191505060405180910390f35b6101346004803603602081101561011e57600080fd5b8101908080359060200190929190505050610263565b005b3373ffffffffffffffffffffffffffffffffffffffff166108fc6000549081150290604051600060405180830381858888f1935050505050565b60005481565b346000808282540192505081905550565b6000808214806101975750600182145b610209576040517f08c379a000000000000000000000000000000000000000000000000000000000815260040180806020018281038252600e8152602001807f696e76616c69642063686f69636500000000000000000000000000000000000081525060200191505060405180910390fd5b6000806002428161021657fe5b06905083811415610246576002600154026000808282540192505081905550600191506000600181905550610253565b6000915060006001819055505b8192505050919050565b60015481565b806000808282540392505081905550806001819055505056fea26469706673582212200b1e137a56052371704c389a3741711ff7d66b6acbaa552c70be6ec56c965c4864736f6c63430007060033",
  "immutableReferences": {},
  "source": "pragma solidity 0.7.6;\n\ncontract CoinFlip {\n\n    // mapping (address => uint) balance;\n\n\tuint256 public contractBalance;\n    uint256 public betAmount;\n\t// uint256 minimumAddBalanceAmnt; //**CHECK NOTE BELOW**\n    \n\t//Constructor to intiailize minimumAddBalanceAmnt variable to 1.. **CHECK NOTE BELOW**\n\t// constructor() {\n\t// \tminimumAddBalanceAmnt = 1;\n\t// }\n\n\t/*// uint256 minimumBet; **CHECK NOTE BELOW**\n\n\t//Constructor to intiailize minimumBet variable to 1\n\tconstructor() {\n\t\tminimumBet = 1;\n\t}*/\n\n\t//Add funds to contract balance (aka set contractBalance)\n\tfunction addBalance() public payable {\n\t\t// require(msg.value >=  minimumAddBalanceAmnt); //**CHECK NOTE BELOW**\n\t\tcontractBalance += msg.value;\n\t}\n\n\tfunction withdrawBalance() public payable {\n\t\tmsg.sender.send(contractBalance);\n\t}\n\n\t//Add funds from contractBalance to betAmount variable (aka set betAmount)\n    function setBet(uint amount) public payable {\n        // require(amount <= contractBalance, \"Insufficient funds. Please bet equal to or less than your current balance amount. Or add more to your balance.\");\n        //require(minimumBet <= amount, \"Minimum bet should be at least 1 ether\"); **CHECK NOTE BELOW**\n\t\tcontractBalance -= amount;\n\t\tbetAmount = amount;\n    }\n\n\t//Function to choose heads/tails choice, run psudo-random coin flip, and run result if choser won/lost\n\tfunction random(uint256 choice) public payable returns(bool){\n\t    require(choice == 0 || choice == 1, \"invalid choice\");\n\t    //require(betAmount > 0);\n\t\tbool success;\n\t\tuint256 result = block.timestamp % 2;\n\t\tif(result == choice){\n\t\t    contractBalance += betAmount * 2;\n\t\t    success = true;\n\t\t\tbetAmount = 0;\n\t\t}\n\t\telse{\n\t\t    success = false;\n\t\t\tbetAmount = 0;\n\t\t}\n\t\treturn success;\n\t}\n\n}",
  "sourcePath": "C:/Users/Slapi/pauls-projects/crypto-dev/CoinFlipDapp/contracts/CoinFlip.sol",
  "compiler": {
    "name": "solc",
    "version": "0.7.6+commit.7338295f.Emscripten.clang"
  },
  "schemaVersion": "3.3.3",
  "updatedAt": "2021-01-25T23:56:52.140Z",
  "networkType": "ethereum",
  "devdoc": {
    "kind": "dev",
    "methods": {},
    "version": 1
  },
  "userdoc": {
    "kind": "user",
    "methods": {},
    "version": 1
  }
}